{
  "_format": "hh-sol-artifact-1",
  "contractName": "ExampleSwapToPrice",
  "sourceName": "contracts/examples/ExampleSwapToPrice.sol",
  "abi": [
    {
      "inputs": [
        {
          "internalType": "address",
          "name": "factory_",
          "type": "address"
        },
        {
          "internalType": "contract IBotdexRouter01",
          "name": "router_",
          "type": "address"
        }
      ],
      "stateMutability": "nonpayable",
      "type": "constructor"
    },
    {
      "inputs": [
        {
          "internalType": "uint256",
          "name": "truePriceTokenA",
          "type": "uint256"
        },
        {
          "internalType": "uint256",
          "name": "truePriceTokenB",
          "type": "uint256"
        },
        {
          "internalType": "uint256",
          "name": "reserveA",
          "type": "uint256"
        },
        {
          "internalType": "uint256",
          "name": "reserveB",
          "type": "uint256"
        }
      ],
      "name": "computeProfitMaximizingTrade",
      "outputs": [
        {
          "internalType": "bool",
          "name": "aToB",
          "type": "bool"
        },
        {
          "internalType": "uint256",
          "name": "amountIn",
          "type": "uint256"
        }
      ],
      "stateMutability": "pure",
      "type": "function"
    },
    {
      "inputs": [],
      "name": "factory",
      "outputs": [
        {
          "internalType": "address",
          "name": "",
          "type": "address"
        }
      ],
      "stateMutability": "view",
      "type": "function"
    },
    {
      "inputs": [],
      "name": "router",
      "outputs": [
        {
          "internalType": "contract IBotdexRouter01",
          "name": "",
          "type": "address"
        }
      ],
      "stateMutability": "view",
      "type": "function"
    },
    {
      "inputs": [
        {
          "internalType": "address",
          "name": "tokenA",
          "type": "address"
        },
        {
          "internalType": "address",
          "name": "tokenB",
          "type": "address"
        },
        {
          "internalType": "uint256",
          "name": "truePriceTokenA",
          "type": "uint256"
        },
        {
          "internalType": "uint256",
          "name": "truePriceTokenB",
          "type": "uint256"
        },
        {
          "internalType": "uint256",
          "name": "maxSpendTokenA",
          "type": "uint256"
        },
        {
          "internalType": "uint256",
          "name": "maxSpendTokenB",
          "type": "uint256"
        },
        {
          "internalType": "address",
          "name": "to",
          "type": "address"
        },
        {
          "internalType": "uint256",
          "name": "deadline",
          "type": "uint256"
        }
      ],
      "name": "swapToPrice",
      "outputs": [],
      "stateMutability": "nonpayable",
      "type": "function"
    }
  ],
  "bytecode": "0x60c060405234801561001057600080fd5b506040516110083803806110088339818101604052604081101561003357600080fd5b5080516020909101516001600160601b0319606092831b811660a052911b1660805260805160601c60a05160601c610f746100946000396000818160ba015261027201526000818161010a015281816102f201526104240152610f746000f3fe608060405234801561001057600080fd5b506004361061004c5760003560e01c8063bef90fd314610051578063c45a0155146100b5578063f887ea4014610105578063fa6531541461012c575b600080fd5b6100b3600480360361010081101561006857600080fd5b5073ffffffffffffffffffffffffffffffffffffffff8135811691602081013582169160408201359160608101359160808201359160a08101359160c0820135169060e00135610176565b005b6100dc7f000000000000000000000000000000000000000000000000000000000000000081565b6040805173ffffffffffffffffffffffffffffffffffffffff9092168252519081900360200190f35b6100dc7f000000000000000000000000000000000000000000000000000000000000000081565b61015b6004803603608081101561014257600080fd5b5080359060208101359060408101359060600135610604565b60408051921515835260208301919091528051918290030190f35b851580159061018457508415155b6101ef57604080517f08c379a000000000000000000000000000000000000000000000000000000000815260206004820152601e60248201527f4578616d706c6553776170546f50726963653a205a45524f5f50524943450000604482015290519081900360640190fd5b831515806101fc57508215155b61026757604080517f08c379a000000000000000000000000000000000000000000000000000000000815260206004820152601e60248201527f4578616d706c6553776170546f50726963653a205a45524f5f5350454e440000604482015290519081900360640190fd5b6000806000806102987f00000000000000000000000000000000000000000000000000000000000000008d8d6106cb565b915091506102a88a8a8484610604565b90945092506000846102ba57876102bc565b885b9050808411156102ca578093505b600080866102d9578d8f6102dc565b8e8e5b915091506102ec823330896107b3565b610317827f000000000000000000000000000000000000000000000000000000000000000088610982565b6040805160028082526060820183526000926020830190803683370190505090508281600081518110610373577f4e487b7100000000000000000000000000000000000000000000000000000000600052603260045260246000fd5b602002602001019073ffffffffffffffffffffffffffffffffffffffff16908173ffffffffffffffffffffffffffffffffffffffff168152505081816001815181106103e8577f4e487b7100000000000000000000000000000000000000000000000000000000600052603260045260246000fd5b602002602001019073ffffffffffffffffffffffffffffffffffffffff16908173ffffffffffffffffffffffffffffffffffffffff16815250507f000000000000000000000000000000000000000000000000000000000000000073ffffffffffffffffffffffffffffffffffffffff166338ed1739886000848e8e6040518663ffffffff1660e01b815260040180868152602001858152602001806020018473ffffffffffffffffffffffffffffffffffffffff168152602001838152602001828103825285818151815260200191508051906020019060200280838360005b838110156104e15781810151838201526020016104c9565b505050509050019650505050505050600060405180830381600087803b15801561050a57600080fd5b505af115801561051e573d6000803e3d6000fd5b505050506040513d6000823e601f3d9081017fffffffffffffffffffffffffffffffffffffffffffffffffffffffffffffffe0168201604052602081101561056557600080fd5b810190808051604051939291908464010000000082111561058557600080fd5b90830190602082018581111561059a57600080fd5b82518660208202830111640100000000821117156105b757600080fd5b82525081516020918201928201910280838360005b838110156105e45781810151838201526020016105cc565b505050509050016040525050505050505050505050505050505050505050565b60008085836106138787610e97565b61061d9190610e5e565b109150600061062c8486610e97565b9050600061067e8461063e5788610640565b875b61064c906103e6610e97565b856106575788610659565b895b6106639085610e97565b61066f906103e8610e97565b6106799190610e5e565b610b5e565b905060006103e68561069b57610696876103e8610e97565b6106a7565b6106a7886103e8610e97565b6106b19190610e5e565b90506106bd8183610ed4565b935050505094509492505050565b60008060006106da8585610c0a565b5090506000806106eb888888610d73565b73ffffffffffffffffffffffffffffffffffffffff16630902f1ac6040518163ffffffff1660e01b815260040160606040518083038186803b15801561073057600080fd5b505afa158015610744573d6000803e3d6000fd5b505050506040513d606081101561075a57600080fd5b5080516020909101516dffffffffffffffffffffffffffff918216935016905073ffffffffffffffffffffffffffffffffffffffff878116908416146107a15780826107a4565b81815b90999098509650505050505050565b6040805173ffffffffffffffffffffffffffffffffffffffff85811660248301528481166044830152606480830185905283518084039091018152608490920183526020820180517bffffffffffffffffffffffffffffffffffffffffffffffffffffffff167f23b872dd00000000000000000000000000000000000000000000000000000000178152925182516000948594938a169392918291908083835b6020831061089057805182527fffffffffffffffffffffffffffffffffffffffffffffffffffffffffffffffe09092019160209182019101610853565b6001836020036101000a0380198251168184511680821785525050505050509050019150506000604051808303816000865af19150503d80600081146108f2576040519150601f19603f3d011682016040523d82523d6000602084013e6108f7565b606091505b5091509150818015610925575080511580610925575080806020019051602081101561092257600080fd5b50515b61097a576040517f08c379a0000000000000000000000000000000000000000000000000000000008152600401808060200182810382526024815260200180610f1b6024913960400191505060405180910390fd5b505050505050565b6040805173ffffffffffffffffffffffffffffffffffffffff8481166024830152604480830185905283518084039091018152606490920183526020820180517bffffffffffffffffffffffffffffffffffffffffffffffffffffffff167f095ea7b3000000000000000000000000000000000000000000000000000000001781529251825160009485949389169392918291908083835b60208310610a5757805182527fffffffffffffffffffffffffffffffffffffffffffffffffffffffffffffffe09092019160209182019101610a1a565b6001836020036101000a0380198251168184511680821785525050505050509050019150506000604051808303816000865af19150503d8060008114610ab9576040519150601f19603f3d011682016040523d82523d6000602084013e610abe565b606091505b5091509150818015610aec575080511580610aec5750808060200190516020811015610ae957600080fd5b50515b610b5757604080517f08c379a000000000000000000000000000000000000000000000000000000000815260206004820152601e60248201527f5472616e7366657248656c7065723a20415050524f56455f4641494c45440000604482015290519081900360640190fd5b5050505050565b60006003821115610bfb575080600160028204015b81811015610bf557809150600281828581610bb7577f4e487b7100000000000000000000000000000000000000000000000000000000600052601260045260246000fd5b040181610bed577f4e487b7100000000000000000000000000000000000000000000000000000000600052601260045260246000fd5b049050610b73565b50919050565b8115610c05575060015b919050565b6000808273ffffffffffffffffffffffffffffffffffffffff168473ffffffffffffffffffffffffffffffffffffffff161415610ca857604080517f08c379a000000000000000000000000000000000000000000000000000000000815260206004820152601e60248201527f426f746465784c6962726172793a20455155414c5f4144445245535345530000604482015290519081900360640190fd5b8273ffffffffffffffffffffffffffffffffffffffff168473ffffffffffffffffffffffffffffffffffffffff1610610ce2578284610ce5565b83835b909250905073ffffffffffffffffffffffffffffffffffffffff8216610d6c57604080517f08c379a000000000000000000000000000000000000000000000000000000000815260206004820152601b60248201527f426f746465784c6962726172793a205a45524f5f414444524553530000000000604482015290519081900360640190fd5b9250929050565b6000806000610d828585610c0a565b604080517fffffffffffffffffffffffffffffffffffffffff000000000000000000000000606094851b811660208084019190915293851b81166034830152825160288184030181526048830184528051908501207fff0000000000000000000000000000000000000000000000000000000000000060688401529a90941b9093166069840152607d8301989098527f851b2e342555a11b63bd464cc6e99f32bf70d1252dab83e521441f515090304e609d808401919091528851808403909101815260bd909201909752805196019590952095945050505050565b600082610e92577f4e487b710000000000000000000000000000000000000000000000000000000081526012600452602481fd5b500490565b6000817fffffffffffffffffffffffffffffffffffffffffffffffffffffffffffffffff0483118215151615610ecf57610ecf610eeb565b500290565b600082821015610ee657610ee6610eeb565b500390565b7f4e487b7100000000000000000000000000000000000000000000000000000000600052601160045260246000fdfe5472616e7366657248656c7065723a205452414e534645525f46524f4d5f4641494c4544a2646970667358221220f8c18977dbb069f51eb59669de873bfc57f4789efb7d3c5345fd2559ba6ba76c64736f6c63430008040033",
  "linkReferences": {},
  "deployedLinkReferences": {}
}