{
  "_format": "hh-sol-artifact-1",
  "contractName": "ExampleSlidingWindowOracle",
  "sourceName": "contracts/examples/ExampleSlidingWindowOracle.sol",
  "abi": [
    {
      "inputs": [
        {
          "internalType": "address",
          "name": "factory_",
          "type": "address"
        },
        {
          "internalType": "uint256",
          "name": "windowSize_",
          "type": "uint256"
        },
        {
          "internalType": "uint8",
          "name": "granularity_",
          "type": "uint8"
        }
      ],
      "stateMutability": "nonpayable",
      "type": "constructor"
    },
    {
      "inputs": [
        {
          "internalType": "address",
          "name": "tokenIn",
          "type": "address"
        },
        {
          "internalType": "uint256",
          "name": "amountIn",
          "type": "uint256"
        },
        {
          "internalType": "address",
          "name": "tokenOut",
          "type": "address"
        }
      ],
      "name": "consult",
      "outputs": [
        {
          "internalType": "uint256",
          "name": "amountOut",
          "type": "uint256"
        }
      ],
      "stateMutability": "view",
      "type": "function"
    },
    {
      "inputs": [],
      "name": "factory",
      "outputs": [
        {
          "internalType": "address",
          "name": "",
          "type": "address"
        }
      ],
      "stateMutability": "view",
      "type": "function"
    },
    {
      "inputs": [],
      "name": "granularity",
      "outputs": [
        {
          "internalType": "uint8",
          "name": "",
          "type": "uint8"
        }
      ],
      "stateMutability": "view",
      "type": "function"
    },
    {
      "inputs": [
        {
          "internalType": "uint256",
          "name": "timestamp",
          "type": "uint256"
        }
      ],
      "name": "observationIndexOf",
      "outputs": [
        {
          "internalType": "uint8",
          "name": "index",
          "type": "uint8"
        }
      ],
      "stateMutability": "view",
      "type": "function"
    },
    {
      "inputs": [
        {
          "internalType": "address",
          "name": "",
          "type": "address"
        },
        {
          "internalType": "uint256",
          "name": "",
          "type": "uint256"
        }
      ],
      "name": "pairObservations",
      "outputs": [
        {
          "internalType": "uint256",
          "name": "timestamp",
          "type": "uint256"
        },
        {
          "internalType": "uint256",
          "name": "price0Cumulative",
          "type": "uint256"
        },
        {
          "internalType": "uint256",
          "name": "price1Cumulative",
          "type": "uint256"
        }
      ],
      "stateMutability": "view",
      "type": "function"
    },
    {
      "inputs": [],
      "name": "periodSize",
      "outputs": [
        {
          "internalType": "uint256",
          "name": "",
          "type": "uint256"
        }
      ],
      "stateMutability": "view",
      "type": "function"
    },
    {
      "inputs": [
        {
          "internalType": "address",
          "name": "tokenA",
          "type": "address"
        },
        {
          "internalType": "address",
          "name": "tokenB",
          "type": "address"
        }
      ],
      "name": "update",
      "outputs": [],
      "stateMutability": "nonpayable",
      "type": "function"
    },
    {
      "inputs": [],
      "name": "windowSize",
      "outputs": [
        {
          "internalType": "uint256",
          "name": "",
          "type": "uint256"
        }
      ],
      "stateMutability": "view",
      "type": "function"
    }
  ],
  "bytecode": "0x61010060405234801561001157600080fd5b506040516112853803806112858339818101604052606081101561003457600080fd5b5080516020820151604090920151909190600160ff82161161009d576040805162461bcd60e51b815260206004820181905260248201527f536c6964696e6757696e646f774f7261636c653a204752414e554c4152495459604482015290519081900360640190fd5b8160ff82166100ac818361013a565b60e08190526100bb919061015a565b146100f75760405162461bcd60e51b81526004018080602001828103825260308152602001806112556030913960400191505060405180910390fd5b60609290921b6001600160601b03191660805260a05260f81b7fff000000000000000000000000000000000000000000000000000000000000001660c052610185565b60008261015557634e487b7160e01b81526012600452602481fd5b500490565b600081600019048311821515161561018057634e487b7160e01b81526011600452602481fd5b500290565b60805160601c60a05160c05160f81c60e05161104d6102086000396000818161024c0152818161032b015281816105d401526106270152600081816092015281816104ea0152818161068001526107dc01526000818160cf015281816102b2015261034f0152600081816101a2015281816102760152610498015261104d6000f3fe608060405234801561001057600080fd5b50600436106100885760003560e01c8063c45a01551161005b578063c45a01551461019d578063c640752d146101ed578063dbaad32f1461022a578063e4463eb21461024757600080fd5b8063556f0dc71461008d5780638a14117a146100ca5780638c86f1e414610103578063bfcc8e4214610146575b600080fd5b6100b47f000000000000000000000000000000000000000000000000000000000000000081565b6040805160ff9092168252519081900360200190f35b6100f17f000000000000000000000000000000000000000000000000000000000000000081565b60408051918252519081900360200190f35b6100f16004803603606081101561011957600080fd5b5073ffffffffffffffffffffffffffffffffffffffff81358116916020810135916040909101351661026e565b61017f6004803603604081101561015c57600080fd5b5073ffffffffffffffffffffffffffffffffffffffff813516906020013561044f565b60408051938452602084019290925282820152519081900360600190f35b6101c47f000000000000000000000000000000000000000000000000000000000000000081565b6040805173ffffffffffffffffffffffffffffffffffffffff9092168252519081900360200190f35b6102286004803603604081101561020357600080fd5b5073ffffffffffffffffffffffffffffffffffffffff81358116916020013516610491565b005b6100b46004803603602081101561024057600080fd5b5035610622565b6100f17f000000000000000000000000000000000000000000000000000000000000000081565b60008061029c7f000000000000000000000000000000000000000000000000000000000000000086856106df565b905060006102a9826107ca565b805490915042037f0000000000000000000000000000000000000000000000000000000000000000811115610329576040517f08c379a0000000000000000000000000000000000000000000000000000000008152600401808060200182810382526033815260200180610f966033913960400191505060405180910390fd5b7f00000000000000000000000000000000000000000000000000000000000000006002027f0000000000000000000000000000000000000000000000000000000000000000038110156103c7576040517f08c379a000000000000000000000000000000000000000000000000000000000815260040180806020018281038252602c815260200180610fc9602c913960400191505060405180910390fd5b6000806103d3856108cc565b509150915060006103e48a89610af0565b5090508973ffffffffffffffffffffffffffffffffffffffff168173ffffffffffffffffffffffffffffffffffffffff1614156104385761042b856001015484868c610c59565b9650505050505050610448565b61042b856002015483868c610c59565b9392505050565b6000602052816000526040600020818154811061046b57600080fd5b600091825260209091206003909102018054600182015460029092015490935090915083565b60006104be7f000000000000000000000000000000000000000000000000000000000000000084846106df565b73ffffffffffffffffffffffffffffffffffffffff81166000908152602081905260409020549091505b7f000000000000000000000000000000000000000000000000000000000000000060ff168110156105495773ffffffffffffffffffffffffffffffffffffffff821660009081526020819052604081208054600190810182559152016104e8565b50600061055542610622565b73ffffffffffffffffffffffffffffffffffffffff831660009081526020819052604081208054929350909160ff84169081106105bb577f4e487b7100000000000000000000000000000000000000000000000000000000600052603260045260246000fd5b60009182526020909120600390910201805490915042037f000000000000000000000000000000000000000000000000000000000000000081111561061a57600080610606866108cc565b504286556001860191909155600285015550505b505050505050565b6000807f0000000000000000000000000000000000000000000000000000000000000000838161067b577f4e487b7100000000000000000000000000000000000000000000000000000000600052601260045260246000fd5b0490507f000000000000000000000000000000000000000000000000000000000000000060ff1681816106d7577f4e487b7100000000000000000000000000000000000000000000000000000000600052601260045260246000fd5b069392505050565b60008060006106ee8585610af0565b604080517fffffffffffffffffffffffffffffffffffffffff000000000000000000000000606094851b811660208084019190915293851b81166034830152825160288184030181526048830184528051908501207fff0000000000000000000000000000000000000000000000000000000000000060688401529a90941b9093166069840152607d8301989098527f851b2e342555a11b63bd464cc6e99f32bf70d1252dab83e521441f515090304e609d808401919091528851808403909101815260bd909201909752805196019590952095945050505050565b6000806107d642610622565b905060007f000000000000000000000000000000000000000000000000000000000000000060ff168260010160ff1681610839577f4e487b7100000000000000000000000000000000000000000000000000000000600052601260045260246000fd5b0690506000808573ffffffffffffffffffffffffffffffffffffffff1673ffffffffffffffffffffffffffffffffffffffff1681526020019081526020016000208160ff16815481106108b5577f4e487b7100000000000000000000000000000000000000000000000000000000600052603260045260246000fd5b906000526020600020906003020192505050919050565b600080804263ffffffff1690508373ffffffffffffffffffffffffffffffffffffffff16635909c0d56040518163ffffffff1660e01b815260040160206040518083038186803b15801561091f57600080fd5b505afa158015610933573d6000803e3d6000fd5b505050506040513d601f19601f820116820180604052508101906109579190610f7d565b92508373ffffffffffffffffffffffffffffffffffffffff16635a3d54936040518163ffffffff1660e01b815260040160206040518083038186803b15801561099f57600080fd5b505afa1580156109b3573d6000803e3d6000fd5b505050506040513d601f19601f820116820180604052508101906109d79190610f7d565b915060008060008673ffffffffffffffffffffffffffffffffffffffff16630902f1ac6040518163ffffffff1660e01b815260040160606040518083038186803b158015610a2457600080fd5b505afa158015610a38573d6000803e3d6000fd5b505050506040513d601f19601f82011682018060405250810190610a5c9190610f2f565b9250925092508363ffffffff168163ffffffff1614610ae65780840363ffffffff8116610a898486610d02565b517bffffffffffffffffffffffffffffffffffffffffffffffffffffffff1602969096019563ffffffff8116610abf8585610d02565b517bffffffffffffffffffffffffffffffffffffffffffffffffffffffff16029590950194505b5050509193909250565b6000808273ffffffffffffffffffffffffffffffffffffffff168473ffffffffffffffffffffffffffffffffffffffff161415610b8e57604080517f08c379a000000000000000000000000000000000000000000000000000000000815260206004820152601e60248201527f426f746465784c6962726172793a20455155414c5f4144445245535345530000604482015290519081900360640190fd5b8273ffffffffffffffffffffffffffffffffffffffff168473ffffffffffffffffffffffffffffffffffffffff1610610bc8578284610bcb565b83835b909250905073ffffffffffffffffffffffffffffffffffffffff8216610c5257604080517f08c379a000000000000000000000000000000000000000000000000000000000815260206004820152601b60248201527f426f746465784c6962726172793a205a45524f5f414444524553530000000000604482015290519081900360640190fd5b9250929050565b604080516020810190915260008082529060405180602001604052808588880381610cad577f4e487b7100000000000000000000000000000000000000000000000000000000600052601260045260246000fd5b047bffffffffffffffffffffffffffffffffffffffffffffffffffffffff1690529050610ce4610cdd8285610e2b565b5160701c90565b71ffffffffffffffffffffffffffffffffffff169695505050505050565b6040805160208101909152600081526dffffffffffffffffffffffffffff8216610d8d57604080517f08c379a000000000000000000000000000000000000000000000000000000000815260206004820152601760248201527f4669786564506f696e743a204449565f42595f5a45524f000000000000000000604482015290519081900360640190fd5b6040805160208101909152806dffffffffffffffffffffffffffff84167bffffffffffffffffffffffffffff0000000000000000000000000000607087901b1681610e01577f4e487b7100000000000000000000000000000000000000000000000000000000600052601260045260246000fd5b047bffffffffffffffffffffffffffffffffffffffffffffffffffffffff16815250905092915050565b6040805160208101909152600081526000821580610ea257505082517bffffffffffffffffffffffffffffffffffffffffffffffffffffffff1682810290838281610e9f577f4e487b7100000000000000000000000000000000000000000000000000000000600052601260045260246000fd5b04145b610ef7576040517f08c379a0000000000000000000000000000000000000000000000000000000008152600401808060200182810382526023815260200180610ff56023913960400191505060405180910390fd5b60408051602081019091529081529392505050565b80516dffffffffffffffffffffffffffff81168114610f2a57600080fd5b919050565b600080600060608486031215610f43578283fd5b610f4c84610f0c565b9250610f5a60208501610f0c565b9150604084015163ffffffff81168114610f72578182fd5b809150509250925092565b600060208284031215610f8e578081fd5b505191905056fe536c6964696e6757696e646f774f7261636c653a204d495353494e475f484953544f524943414c5f4f42534552564154494f4e536c6964696e6757696e646f774f7261636c653a20554e45585045435445445f54494d455f454c41505345444669786564506f696e743a204d554c5449504c49434154494f4e5f4f564552464c4f57a26469706673582212208d571428dadd766b4cfefa75f2a27fced12fb403b043336d4bbdb45672cdf94164736f6c63430008040033536c6964696e6757696e646f774f7261636c653a2057494e444f575f4e4f545f4556454e4c595f444956495349424c45",
  "linkReferences": {},
  "deployedLinkReferences": {}
}