{
  "_format": "hh-sol-artifact-1",
  "contractName": "BotdexMigrator",
  "sourceName": "contracts/BotdexMigrator.sol",
  "abi": [
    {
      "inputs": [
        {
          "internalType": "address",
          "name": "_factoryV1",
          "type": "address"
        },
        {
          "internalType": "address",
          "name": "_router",
          "type": "address"
        }
      ],
      "stateMutability": "nonpayable",
      "type": "constructor"
    },
    {
      "inputs": [
        {
          "internalType": "address",
          "name": "token",
          "type": "address"
        },
        {
          "internalType": "uint256",
          "name": "amountTokenMin",
          "type": "uint256"
        },
        {
          "internalType": "uint256",
          "name": "amountETHMin",
          "type": "uint256"
        },
        {
          "internalType": "address",
          "name": "to",
          "type": "address"
        },
        {
          "internalType": "uint256",
          "name": "deadline",
          "type": "uint256"
        }
      ],
      "name": "migrate",
      "outputs": [],
      "stateMutability": "nonpayable",
      "type": "function"
    },
    {
      "stateMutability": "payable",
      "type": "receive"
    }
  ],
  "bytecode": "0x60c060405234801561001057600080fd5b50604051610cb4380380610cb483398101604081905261002f91610069565b6001600160601b0319606092831b8116608052911b1660a05261009b565b80516001600160a01b038116811461006457600080fd5b919050565b6000806040838503121561007b578182fd5b6100848361004d565b91506100926020840161004d565b90509250929050565b60805160601c60a05160601c610be16100d3600039600081816103b20152818161044501526104d60152600060980152610be16000f3fe6080604052600436106100225760003560e01c8063b7df1d251461002e57600080fd5b3661002957005b600080fd5b34801561003a57600080fd5b5061004e610049366004610a4e565b610050565b005b6040517f06f2bf6200000000000000000000000000000000000000000000000000000000815273ffffffffffffffffffffffffffffffffffffffff86811660048301526000917f0000000000000000000000000000000000000000000000000000000000000000909116906306f2bf629060240160206040518083038186803b1580156100dc57600080fd5b505afa1580156100f0573d6000803e3d6000fd5b505050506040513d601f19601f820116820180604052508101906101149190610a2b565b6040517f70a0823100000000000000000000000000000000000000000000000000000000815233600482015290915060009073ffffffffffffffffffffffffffffffffffffffff8316906370a082319060240160206040518083038186803b15801561017f57600080fd5b505afa158015610193573d6000803e3d6000fd5b505050506040513d601f19601f820116820180604052508101906101b79190610abf565b6040517f23b872dd0000000000000000000000000000000000000000000000000000000081523360048201523060248201526044810182905290915073ffffffffffffffffffffffffffffffffffffffff8316906323b872dd90606401602060405180830381600087803b15801561022e57600080fd5b505af1158015610242573d6000803e3d6000fd5b505050506040513d601f19601f820116820180604052508101906102669190610a9f565b6102d0576040517f08c379a000000000000000000000000000000000000000000000000000000000815260206004820152601460248201527f5452414e534645525f46524f4d5f4641494c4544000000000000000000000000604482015260640160405180910390fd5b6040517ff88bf15a0000000000000000000000000000000000000000000000000000000081526004810182905260016024820181905260448201527fffffffffffffffffffffffffffffffffffffffffffffffffffffffffffffffff6064820152600090819073ffffffffffffffffffffffffffffffffffffffff85169063f88bf15a906084016040805180830381600087803b15801561037057600080fd5b505af1158015610384573d6000803e3d6000fd5b505050506040513d601f19601f820116820180604052508101906103a89190610ad7565b915091506103d7897f00000000000000000000000000000000000000000000000000000000000000008361053d565b6040517ff305d71900000000000000000000000000000000000000000000000000000000815273ffffffffffffffffffffffffffffffffffffffff8a8116600483015260248201839052604482018a905260648201899052878116608483015260a4820187905260009182917f0000000000000000000000000000000000000000000000000000000000000000169063f305d71990869060c4016060604051808303818588803b15801561048a57600080fd5b505af115801561049e573d6000803e3d6000fd5b50505050506040513d601f19601f820116820180604052508101906104c39190610afa565b509150915081831115610515576104fc8b7f0000000000000000000000000000000000000000000000000000000000000000600061053d565b6105108b3361050b8587610b27565b610719565b610530565b80841115610530576105303361052b8387610b27565b6108ee565b5050505050505050505050565b6040805173ffffffffffffffffffffffffffffffffffffffff8481166024830152604480830185905283518084039091018152606490920183526020820180517bffffffffffffffffffffffffffffffffffffffffffffffffffffffff167f095ea7b3000000000000000000000000000000000000000000000000000000001781529251825160009485949389169392918291908083835b6020831061061257805182527fffffffffffffffffffffffffffffffffffffffffffffffffffffffffffffffe090920191602091820191016105d5565b6001836020036101000a0380198251168184511680821785525050505050509050019150506000604051808303816000865af19150503d8060008114610674576040519150601f19603f3d011682016040523d82523d6000602084013e610679565b606091505b50915091508180156106a75750805115806106a757508080602001905160208110156106a457600080fd5b50515b61071257604080517f08c379a000000000000000000000000000000000000000000000000000000000815260206004820152601e60248201527f5472616e7366657248656c7065723a20415050524f56455f4641494c45440000604482015290519081900360640190fd5b5050505050565b6040805173ffffffffffffffffffffffffffffffffffffffff8481166024830152604480830185905283518084039091018152606490920183526020820180517bffffffffffffffffffffffffffffffffffffffffffffffffffffffff167fa9059cbb000000000000000000000000000000000000000000000000000000001781529251825160009485949389169392918291908083835b602083106107ee57805182527fffffffffffffffffffffffffffffffffffffffffffffffffffffffffffffffe090920191602091820191016107b1565b6001836020036101000a0380198251168184511680821785525050505050509050019150506000604051808303816000865af19150503d8060008114610850576040519150601f19603f3d011682016040523d82523d6000602084013e610855565b606091505b5091509150818015610883575080511580610883575080806020019051602081101561088057600080fd5b50515b61071257604080517f08c379a000000000000000000000000000000000000000000000000000000000815260206004820152601f60248201527f5472616e7366657248656c7065723a205452414e534645525f4641494c454400604482015290519081900360640190fd5b6040805160008082526020820190925273ffffffffffffffffffffffffffffffffffffffff84169083906040518082805190602001908083835b6020831061096557805182527fffffffffffffffffffffffffffffffffffffffffffffffffffffffffffffffe09092019160209182019101610928565b6001836020036101000a03801982511681845116808217855250505050505090500191505060006040518083038185875af1925050503d80600081146109c7576040519150601f19603f3d011682016040523d82523d6000602084013e6109cc565b606091505b5050905080610a26576040517f08c379a0000000000000000000000000000000000000000000000000000000008152600401808060200182810382526023815260200180610b896023913960400191505060405180910390fd5b505050565b600060208284031215610a3c578081fd5b8151610a4781610b63565b9392505050565b600080600080600060a08688031215610a65578081fd5b8535610a7081610b63565b945060208601359350604086013592506060860135610a8e81610b63565b949793965091946080013592915050565b600060208284031215610ab0578081fd5b81518015158114610a47578182fd5b600060208284031215610ad0578081fd5b5051919050565b60008060408385031215610ae9578182fd5b505080516020909101519092909150565b600080600060608486031215610b0e578283fd5b8351925060208401519150604084015190509250925092565b600082821015610b5e577f4e487b710000000000000000000000000000000000000000000000000000000081526011600452602481fd5b500390565b73ffffffffffffffffffffffffffffffffffffffff81168114610b8557600080fd5b5056fe5472616e7366657248656c7065723a204554485f5452414e534645525f4641494c4544a2646970667358221220c8c35701a58ff9a5f4ff1077740dcdded0aa8c2c741a86d4cdc2a4ed86a95c3b64736f6c63430008040033",
  "linkReferences": {},
  "deployedLinkReferences": {}
}