{
  "_format": "hh-sol-artifact-1",
  "contractName": "ExampleFlashSwap",
  "sourceName": "contracts/examples/ExampleFlashSwap.sol",
  "abi": [
    {
      "inputs": [
        {
          "internalType": "address",
          "name": "_factory",
          "type": "address"
        },
        {
          "internalType": "address",
          "name": "_factoryV1",
          "type": "address"
        },
        {
          "internalType": "address",
          "name": "router",
          "type": "address"
        }
      ],
      "stateMutability": "nonpayable",
      "type": "constructor"
    },
    {
      "inputs": [
        {
          "internalType": "address",
          "name": "sender",
          "type": "address"
        },
        {
          "internalType": "uint256",
          "name": "amount0",
          "type": "uint256"
        },
        {
          "internalType": "uint256",
          "name": "amount1",
          "type": "uint256"
        },
        {
          "internalType": "bytes",
          "name": "data",
          "type": "bytes"
        }
      ],
      "name": "BotdexCall",
      "outputs": [],
      "stateMutability": "nonpayable",
      "type": "function"
    },
    {
      "stateMutability": "payable",
      "type": "receive"
    }
  ],
  "bytecode": "0x60e060405234801561001057600080fd5b506040516119c03803806119c08339818101604052606081101561003357600080fd5b5080516020808301516040938401516001600160601b0319606083811b821660805285901b1660a05284516315ab88c960e31b815294519394919390926001600160a01b0384169263ad5c46489260048083019392829003018186803b15801561009c57600080fd5b505afa1580156100b0573d6000803e3d6000fd5b505050506040513d60208110156100c657600080fd5b50516001600160601b031960609190911b1660c05250505060805160601c60a05160601c60c05160601c61186b61015560003960008181610396015281816103cb0152818161042a015281816104c0015281816105860152818161099201528181610a5b0152610c860152600081816101f7015281816108f10152610d99015260006106a8015261186b6000f3fe6080604052600436106100225760003560e01c80630456f7471461002e57600080fd5b3661002957005b600080fd5b34801561003a57600080fd5b506100d46004803603608081101561005157600080fd5b73ffffffffffffffffffffffffffffffffffffffff823516916020810135916040820135919081019060808101606082013564010000000081111561009557600080fd5b8201836020820111156100a757600080fd5b803590602001918460018302840111640100000000831117156100c957600080fd5b5090925090506100d6565b005b60408051600280825260608201835260009260208301908036833701905050905060008060003373ffffffffffffffffffffffffffffffffffffffff16630dfe16816040518163ffffffff1660e01b815260040160206040518083038186803b15801561014257600080fd5b505afa158015610156573d6000803e3d6000fd5b505050506040513d602081101561016c57600080fd5b5051604080517fd21220a70000000000000000000000000000000000000000000000000000000081529051919250600091339163d21220a7916004808301926020929190829003018186803b1580156101c457600080fd5b505afa1580156101d8573d6000803e3d6000fd5b505050506040513d60208110156101ee57600080fd5b5051905061021d7f00000000000000000000000000000000000000000000000000000000000000008383610ff5565b73ffffffffffffffffffffffffffffffffffffffff163373ffffffffffffffffffffffffffffffffffffffff161461027e577f4e487b7100000000000000000000000000000000000000000000000000000000600052600160045260246000fd5b881580610289575087155b6102bc577f4e487b7100000000000000000000000000000000000000000000000000000000600052600160045260246000fd5b88156102c857806102ca565b815b85600081518110610304577f4e487b7100000000000000000000000000000000000000000000000000000000600052603260045260246000fd5b73ffffffffffffffffffffffffffffffffffffffff9092166020928302919091019091015288156103355781610337565b805b85600181518110610371577f4e487b7100000000000000000000000000000000000000000000000000000000600052603260045260246000fd5b73ffffffffffffffffffffffffffffffffffffffff92831660209182029290920101527f00000000000000000000000000000000000000000000000000000000000000008116908316146103c557886103c7565b875b93507f000000000000000000000000000000000000000000000000000000000000000073ffffffffffffffffffffffffffffffffffffffff168273ffffffffffffffffffffffffffffffffffffffff16146104225787610424565b885b925050507f000000000000000000000000000000000000000000000000000000000000000073ffffffffffffffffffffffffffffffffffffffff1683600081518110610499577f4e487b7100000000000000000000000000000000000000000000000000000000600052603260045260246000fd5b602002602001015173ffffffffffffffffffffffffffffffffffffffff16148061054f57507f000000000000000000000000000000000000000000000000000000000000000073ffffffffffffffffffffffffffffffffffffffff168360018151811061052f577f4e487b7100000000000000000000000000000000000000000000000000000000600052603260045260246000fd5b602002602001015173ffffffffffffffffffffffffffffffffffffffff16145b610582577f4e487b7100000000000000000000000000000000000000000000000000000000600052600160045260246000fd5b60007f000000000000000000000000000000000000000000000000000000000000000073ffffffffffffffffffffffffffffffffffffffff16846000815181106105f5577f4e487b7100000000000000000000000000000000000000000000000000000000600052603260045260246000fd5b602002602001015173ffffffffffffffffffffffffffffffffffffffff161461065f5783600081518110610652577f4e487b7100000000000000000000000000000000000000000000000000000000600052603260045260246000fd5b60200260200101516106a2565b83600181518110610699577f4e487b7100000000000000000000000000000000000000000000000000000000600052603260045260246000fd5b60200260200101515b905060007f000000000000000000000000000000000000000000000000000000000000000073ffffffffffffffffffffffffffffffffffffffff166306f2bf62836040518263ffffffff1660e01b8152600401808273ffffffffffffffffffffffffffffffffffffffff16815260200191505060206040518083038186803b15801561072d57600080fd5b505afa158015610741573d6000803e3d6000fd5b505050506040513d602081101561075757600080fd5b505190508315610c285760008787602081101561077357600080fd5b50604080517f095ea7b300000000000000000000000000000000000000000000000000000000815273ffffffffffffffffffffffffffffffffffffffff8581166004830152602482018990529151923593509085169163095ea7b3916044808201926020929091908290030181600087803b1580156107f157600080fd5b505af1158015610805573d6000803e3d6000fd5b505050506040513d602081101561081b57600080fd5b5050604080517f95e3c50b00000000000000000000000000000000000000000000000000000000815260048101879052602481018390527fffffffffffffffffffffffffffffffffffffffffffffffffffffffffffffffff6044820152905160009173ffffffffffffffffffffffffffffffffffffffff8516916395e3c50b9160648082019260209290919082900301818787803b1580156108bc57600080fd5b505af11580156108d0573d6000803e3d6000fd5b505050506040513d60208110156108e657600080fd5b5051905060006109177f0000000000000000000000000000000000000000000000000000000000000000888a6110e0565b600081518110610950577f4e487b7100000000000000000000000000000000000000000000000000000000600052603260045260246000fd5b60200260200101519050808211610990577f4e487b7100000000000000000000000000000000000000000000000000000000600052600160045260246000fd5b7f000000000000000000000000000000000000000000000000000000000000000073ffffffffffffffffffffffffffffffffffffffff1663d0e30db0826040518263ffffffff1660e01b81526004016000604051808303818588803b1580156109f857600080fd5b505af1158015610a0c573d6000803e3d6000fd5b5050604080517fa9059cbb00000000000000000000000000000000000000000000000000000000815233600482015260248101869052905173ffffffffffffffffffffffffffffffffffffffff7f000000000000000000000000000000000000000000000000000000000000000016945063a9059cbb9350604480830193506020928290030181600087803b158015610aa457600080fd5b505af1158015610ab8573d6000803e3d6000fd5b505050506040513d6020811015610ace57600080fd5b5051610b03577f4e487b7100000000000000000000000000000000000000000000000000000000600052600160045260246000fd5b600073ffffffffffffffffffffffffffffffffffffffff8e16610b26838561176c565b604080516000815260208101918290528051909190819081908082805b60208310610b8057805182527fffffffffffffffffffffffffffffffffffffffffffffffffffffffffffffffe09092019160209182019101610b43565b6001836020036101000a03801982511681845116808217855250505050505090500191505060006040518083038185875af1925050503d8060008114610be2576040519150601f19603f3d011682016040523d82523d6000602084013e610be7565b606091505b5050905080610c1f577f4e487b7100000000000000000000000000000000000000000000000000000000600052600160045260246000fd5b50505050610fe9565b600087876020811015610c3a57600080fd5b50604080517f2e1a7d4d0000000000000000000000000000000000000000000000000000000081526004810187905290519135925073ffffffffffffffffffffffffffffffffffffffff7f00000000000000000000000000000000000000000000000000000000000000001691632e1a7d4d9160248082019260009290919082900301818387803b158015610cce57600080fd5b505af1158015610ce2573d6000803e3d6000fd5b5050505060008273ffffffffffffffffffffffffffffffffffffffff1663f39b5b9b86847fffffffffffffffffffffffffffffffffffffffffffffffffffffffffffffffff6040518463ffffffff1660e01b815260040180838152602001828152602001925050506020604051808303818588803b158015610d6357600080fd5b505af1158015610d77573d6000803e3d6000fd5b50505050506040513d6020811015610d8e57600080fd5b505190506000610dbf7f0000000000000000000000000000000000000000000000000000000000000000878a6110e0565b600081518110610df8577f4e487b7100000000000000000000000000000000000000000000000000000000600052603260045260246000fd5b60200260200101519050808211610e38577f4e487b7100000000000000000000000000000000000000000000000000000000600052600160045260246000fd5b604080517fa9059cbb00000000000000000000000000000000000000000000000000000000815233600482015260248101839052905173ffffffffffffffffffffffffffffffffffffffff87169163a9059cbb9160448083019260209291908290030181600087803b158015610ead57600080fd5b505af1158015610ec1573d6000803e3d6000fd5b505050506040513d6020811015610ed757600080fd5b5051610f0c577f4e487b7100000000000000000000000000000000000000000000000000000000600052600160045260246000fd5b73ffffffffffffffffffffffffffffffffffffffff851663a9059cbb8e610f33848661176c565b6040518363ffffffff1660e01b8152600401808373ffffffffffffffffffffffffffffffffffffffff16815260200182815260200192505050602060405180830381600087803b158015610f8657600080fd5b505af1158015610f9a573d6000803e3d6000fd5b505050506040513d6020811015610fb057600080fd5b5051610fe5577f4e487b7100000000000000000000000000000000000000000000000000000000600052600160045260246000fd5b5050505b50505050505050505050565b6000806000611004858561137f565b604080517fffffffffffffffffffffffffffffffffffffffff000000000000000000000000606094851b811660208084019190915293851b81166034830152825160288184030181526048830184528051908501207fff0000000000000000000000000000000000000000000000000000000000000060688401529a90941b9093166069840152607d8301989098527f851b2e342555a11b63bd464cc6e99f32bf70d1252dab83e521441f515090304e609d808401919091528851808403909101815260bd909201909752805196019590952095945050505050565b606060028251101561115357604080517f08c379a000000000000000000000000000000000000000000000000000000000815260206004820152601b60248201527f426f746465784c6962726172793a20494e56414c49445f504154480000000000604482015290519081900360640190fd5b815167ffffffffffffffff811115611194577f4e487b7100000000000000000000000000000000000000000000000000000000600052604160045260246000fd5b6040519080825280602002602001820160405280156111bd578160200160208202803683370190505b5090508281600183516111d0919061176c565b81518110611207577f4e487b7100000000000000000000000000000000000000000000000000000000600052603260045260246000fd5b602002602001018181525050600060018351611223919061176c565b90505b8015611377576000806112c4878661123f60018761176c565b81518110611276577f4e487b7100000000000000000000000000000000000000000000000000000000600052603260045260246000fd5b60200260200101518786815181106112b7577f4e487b7100000000000000000000000000000000000000000000000000000000600052603260045260246000fd5b60200260200101516114e8565b91509150611313848481518110611304577f4e487b7100000000000000000000000000000000000000000000000000000000600052603260045260246000fd5b602002602001015183836115d0565b8461131f60018661176c565b81518110611356577f4e487b7100000000000000000000000000000000000000000000000000000000600052603260045260246000fd5b6020026020010181815250505050808061136f90611783565b915050611226565b509392505050565b6000808273ffffffffffffffffffffffffffffffffffffffff168473ffffffffffffffffffffffffffffffffffffffff16141561141d57604080517f08c379a000000000000000000000000000000000000000000000000000000000815260206004820152601e60248201527f426f746465784c6962726172793a20455155414c5f4144445245535345530000604482015290519081900360640190fd5b8273ffffffffffffffffffffffffffffffffffffffff168473ffffffffffffffffffffffffffffffffffffffff161061145757828461145a565b83835b909250905073ffffffffffffffffffffffffffffffffffffffff82166114e157604080517f08c379a000000000000000000000000000000000000000000000000000000000815260206004820152601b60248201527f426f746465784c6962726172793a205a45524f5f414444524553530000000000604482015290519081900360640190fd5b9250929050565b60008060006114f7858561137f565b509050600080611508888888610ff5565b73ffffffffffffffffffffffffffffffffffffffff16630902f1ac6040518163ffffffff1660e01b815260040160606040518083038186803b15801561154d57600080fd5b505afa158015611561573d6000803e3d6000fd5b505050506040513d606081101561157757600080fd5b5080516020909101516dffffffffffffffffffffffffffff918216935016905073ffffffffffffffffffffffffffffffffffffffff878116908416146115be5780826115c1565b81815b90999098509650505050505050565b600083611628576040517f08c379a000000000000000000000000000000000000000000000000000000000815260040180806020018281038252602981526020018061180d6029913960400191505060405180910390fd5b821580159061163657508115155b61168b576040517f08c379a00000000000000000000000000000000000000000000000000000000081526004018080602001828103825260258152602001806117e86025913960400191505060405180910390fd5b6000611697858561172f565b6116a3906103e861172f565b905060006116b1868561176c565b6116bd906103e661172f565b90506116c981836116f6565b6116d49060016116de565b9695505050505050565b600082198211156116f1576116f16117b8565b500190565b60008261172a577f4e487b710000000000000000000000000000000000000000000000000000000081526012600452602481fd5b500490565b6000817fffffffffffffffffffffffffffffffffffffffffffffffffffffffffffffffff0483118215151615611767576117676117b8565b500290565b60008282101561177e5761177e6117b8565b500390565b600081611792576117926117b8565b507fffffffffffffffffffffffffffffffffffffffffffffffffffffffffffffffff0190565b7f4e487b7100000000000000000000000000000000000000000000000000000000600052601160045260246000fdfe426f746465784c6962726172793a20494e53554646494349454e545f4c4951554944495459426f746465784c6962726172793a20494e53554646494349454e545f4f55545055545f414d4f554e54a2646970667358221220f157f1f501d250f2393cfb107d95d929f6cd8093dd385fadad3b9d245166648f64736f6c63430008040033",
  "linkReferences": {},
  "deployedLinkReferences": {}
}